:100000000C945D000C9485000C9485000C94850084
:100010000C9485000C9485000C9485000C9485004C
:100020000C9485000C9485000C9485000C9485003C
:100030000C9485000C9485000C9485000C9485002C
:100040000C94E0020C9485000C9450030C942A0349
:100050000C9485000C9485000C9485000C9485000C
:100060000C9485000C9485000000000024002700FB
:100070002A0000000000250028002B0004040404CE
:100080000404040402020202020203030303030342
:10009000010204081020408001020408102001021F
:1000A00004081020000000080002010000030407FB
:1000B0000000000000000000820311241FBECFEFEB
:1000C000D8E0DEBFCDBF11E0A0E0B1E0EAEFFEE096
:1000D00002C005900D92A631B107D9F721E0A6E143
:1000E000B1E001C01D92A03CB207E1F710E0CDE500
:1000F000D0E004C02197FE010E947007CC35D107E3
:10010000C9F70E94C5030C947B070C94000090E093
:10011000FC01EC55FF4F2491FC01E057FF4F349157
:10012000FC01E458FF4FE491EE2309F43CC0222384
:1001300039F1233091F038F42130A9F0223001F563
:1001400084B58F7D12C0273091F02830A1F0243083
:10015000B9F4809180008F7D03C0809180008F77FB
:10016000809380000DC084B58F7784BD09C08091D5
:10017000B0008F7703C08091B0008F7D8093B00076
:10018000F0E0EE0FFF1FEE58FF4FA591B4919FB71F
:10019000F894611104C08C913095382302C0EC9121
:1001A0003E2B3C939FBF0895CF93DF9390E0FC01DB
:1001B000E057FF4F2491FC01E458FF4F84918823BE
:1001C00061F190E0880F991FFC01E859FF4FC5913C
:1001D000D491FC01EE58FF4FA591B491611109C073
:1001E0009FB7F8948881209582238883EC912E23F1
:1001F0000BC0623061F49FB7F8948881322F30953C
:1002000083238883EC912E2B2C939FBF06C08FB73E
:10021000F894E8812E2B28838FBFDF91CF9108952A
:100220001F93CF93DF93182FEB0161E00E94D4005E
:10023000209711F460E004C0CF3FD10539F461E0AC
:10024000812FDF91CF911F910C948700E12FF0E077
:10025000EC55FF4FE491E330F9F048F4E130B9F0A8
:10026000E230A1F584B5806284BDC8BD34C0E730FA
:10027000E9F0E83019F1E43049F5809180008062BE
:1002800080938000D0938B00C0938A0024C084B5F3
:10029000806884BDC7BD1FC0809180008068809346
:1002A0008000D0938900C093880015C08091B00071
:1002B00080688093B000C093B3000DC08091B000FF
:1002C00080628093B000C093B40005C0C038D105EF
:1002D0000CF0B5CFAFCFDF91CF911F9108953FB70D
:1002E000F89480911B0190911C01A0911D01B09187
:1002F0001E0126B5A89B05C02F3F19F00196A11D30
:10030000B11D3FBFBA2FA92F982F8827820F911DAB
:10031000A11DB11DBC01CD0142E0660F771F881FF2
:10032000991F4A95D1F708958F929F92AF92BF92ED
:10033000CF92DF92EF92FF926B017C010E946F01DE
:100340004B015C01C114D104E104F104F1F00E94FD
:100350006F01DC01CB0188199909AA09BB09883E04
:100360009340A105B10570F321E0C21AD108E1085C
:10037000F10888EE880E83E0981EA11CB11CC11400
:10038000D104E104F10419F7DDCFFF90EF90DF9085
:10039000CF90BF90AF909F908F900895CF92DF92B3
:1003A000EF92FF920F931F93CF93DF936C017A012B
:1003B0008B01C0E0D0E0CE15DF0581F0D8016D9152
:1003C0008D01D601ED91FC910190F081E02DC601E7
:1003D0000995892B11F02196EECF7E01C701DF919F
:1003E000CF911F910F91FF90EF90DF90CF900895E4
:1003F000089580E090E00895FC01538D448D252FF1
:1004000030E0842F90E0821B930B541710F0CF96AE
:10041000089501970895FC01918D828D981761F0E0
:10042000828DDF01A80FB11D5D968C91928D9F5F2B
:100430009F73928F90E008958FEF9FEF0895FC01D6
:10044000918D828D981731F0828DE80FF11D858D89
:1004500090E008958FEF9FEF0895FC01918D228D1C
:10046000892F90E0805C9F4F821B91098F739927A1
:1004700008958FE191E00E942D0221E0892B09F47B
:1004800020E0822F0895FC01848DDF01A80FB11DAB
:10049000A35ABF4F2C91848D90E001968F739927BA
:1004A000848FA689B7892C93A089B1898C91837098
:1004B00080648C93938D848D981306C00288F38991
:1004C000E02D80818F7D80830895EF92FF920F93BE
:1004D0001F93CF93DF93EC0181E0888F9B8D8C8DF0
:1004E000981305C0E889F989808185FD26C0F62E1C
:1004F0000B8D10E00F5F1F4F0F731127E02E8C8DB7
:10050000E8120CC00FB607FCFACFE889F9898081A0
:1005100085FFF5CFCE010E944302F1CF8B8DFE0106
:10052000E80FF11DE35AFF4FF0829FB7F8940B8F4D
:10053000EA89FB89808180620AC09FB7F894EE89BE
:10054000FF896083E889F989808183708064808372
:100550009FBF81E090E0DF91CF911F910F91FF90BD
:10056000EF900895CF93DF93EC01888D8823C9F035
:10057000EA89FB89808185FD05C0A889B9898C91AC
:1005800086FD0FC00FB607FCF5CF808185FFF2CF47
:10059000A889B9898C9185FFEDCFCE010E944302D5
:1005A000E7CFDF91CF91089580E090E0892B29F08B
:1005B0000E94390281110C94000008950E94760770
:1005C0001F920F920FB60F9211242F933F938F9388
:1005D0009F93AF93BF938091170190911801A091C1
:1005E0001901B0911A013091160123E0230F2D3724
:1005F00020F40196A11DB11D05C026E8230F029627
:10060000A11DB11D2093160180931701909318012D
:10061000A0931901B0931A0180911B0190911C01C4
:10062000A0911D01B0911E010196A11DB11D8093E5
:100630001B0190931C01A0931D01B0931E01BF915B
:10064000AF919F918F913F912F910F900FBE0F907F
:100650001F9018951F920F920FB60F9211242F938F
:100660003F934F935F936F937F938F939F93AF933A
:10067000BF93EF93FF938FE191E00E944302FF91BC
:10068000EF91BF91AF919F918F917F916F915F910A
:100690004F913F912F910F900FBE0F901F90189583
:1006A0001F920F920FB60F9211242F938F939F9347
:1006B000EF93FF93E0912F01F09130018081E09161
:1006C0003501F091360182FD12C090818091380190
:1006D0008F5F8F7320913901821751F0E0913801BB
:1006E000F0E0E15EFE4F958F8093380101C080817C
:1006F000FF91EF919F918F912F910F900FBE0F90CF
:100700001F901895EFE1F1E01382128288EE93E0DA
:10071000A0E0B0E084839583A683B78388E091E06E
:100720009183808385EC90E09587848784EC90E0CA
:100730009787868780EC90E0918B808B81EC90E0AE
:10074000938B828B82EC90E0958B848B86EC90E08F
:10075000978B868B118E128E138E148E20E030E0D4
:1007600048EC52E460910001709101018091020116
:10077000909103010E9419066093BC017093BD0122
:100780008093BE019093BF010895789484B58260F0
:1007900084BD84B5816084BD85B5826085BD85B525
:1007A000816085BD80916E00816080936E001092A3
:1007B000810080918100826080938100809181001E
:1007C00081608093810080918000816080938000AF
:1007D0008091B10084608093B1008091B00081600D
:1007E0008093B00080917A00846080937A00809139
:1007F0007A00826080937A0080917A008160809391
:100800007A0080917A00806880937A001092C1000B
:1008100061E083E00E94D40061E084E00E94D400A3
:1008200061E085E00E94D40061E086E00E94D4008F
:1008300061E087E00E94D40061E088E00E94D4007B
:1008400061E089E00E94D40061E08AE00E94D40067
:1008500061E08CE00E94D40061E08DE00E94D40051
:1008600061E08BE00E94D40060E080E00E94D40050
:10087000E0912F01F091300182E08083E0912B0123
:10088000F0912C011082E0912D01F0912E018FEC5E
:10089000808310923701E0913301F091340186E0BA
:1008A0008083E0913101F091320180818061808309
:1008B000E0913101F0913201808188608083E09184
:1008C0003101F0913201808180688083E0913101B3
:1008D000F091320180818F7D808380E4682E0FEF5C
:1008E00013E098EC792E60927C0080917A0080640D
:1008F00080937A0080917A0086FDFCCF8091780009
:100900002091790090E0922BB8010E944807769ED2
:100910004001779E900C1124092C000CAA08BB08FA
:10092000C501B4010E94BC066093BC017093BD0177
:100930008093BE019093BF0120E030E048EC52E488
:100940000E9419066B017C01609300017093010104
:100950008093020190930301C0E0D0E0BE0183E0E8
:100960000E941001C501B4010E9494012196CF3F5D
:10097000D105A1F760E070E083E00E94100161E022
:1009800084E00E948700C701B6010E948B066B01BC
:100990007C010E94940160E084E00E948700C7010E
:1009A000B6010E94940161E085E00E948700C701C2
:1009B000B6010E94940160E085E00E948700C701B3
:1009C000B6010E94940161E086E00E948700C701A1
:1009D000B6010E94940160E086E00E948700C70192
:1009E000B6010E94940161E087E00E948700C70180
:1009F000B6010E94940160E087E00E948700C70171
:100A0000B6010E94940161E088E00E948700C7015E
:100A1000B6010E94940160E088E00E948700C7014F
:100A2000B6010E94940161E089E00E948700C7013D
:100A3000B6010E94940160E089E00E948700C7012E
:100A4000B6010E94940161E08AE00E948700C7011C
:100A5000B6010E94940160E08AE00E948700C7010D
:100A6000B6010E94940161E08CE00E948700C701FA
:100A7000B6010E94940160E08CE00E948700C701EB
:100A8000B6010E94940161E08DE00E948700C701D9
:100A9000B6010E94940160E08DE00E948700C701CA
:100AA000B6010E94940161E08BE00E948700C701BB
:100AB000B6010E94940160E08BE00E948700C701AC
:100AC000B6010E949401C0E0D0E0BE018BE00E941C
:100AD0001001C501B4010E9494012196CF3FD105B8
:100AE000A1F760E070E08BE00E94100161E08DE012
:100AF0000E948700C701B6010E94940160E08DE06A
:100B00000E948700C701B6010E94940161E08CE059
:100B10000E948700C701B6010E94940160E08CE04A
:100B20000E948700C701B6010E94940161E08AE03B
:100B30000E948700C701B6010E94940160E08AE02C
:100B40000E948700C701B6010E94940161E089E01C
:100B50000E948700C701B6010E94940160E089E00D
:100B60000E948700C701B6010E94940161E088E0FD
:100B70000E948700C701B6010E94940160E088E0EE
:100B80000E948700C701B6010E94940161E087E0DE
:100B90000E948700C701B6010E94940160E087E0CF
:100BA0000E948700C701B6010E94940161E086E0BF
:100BB0000E948700C701B6010E94940160E086E0B0
:100BC0000E948700C701B6010E94940161E085E0A0
:100BD0000E948700C701B6010E94940160E085E091
:100BE0000E948700C701B6010E94940161E084E081
:100BF0000E948700C701B6010E94940160E084E072
:100C00000E948700C701B6010E94940161E083E061
:100C10000E948700C701B6010E94940160E083E052
:100C20000E948700C701B6010E9494010E94D4026D
:100C30005ACE0E942D060C940E070E94070758F00A
:100C40000E94000740F029F45F3F29F00C94F7065A
:100C500051110C9442070C94FD060E941F0768F383
:100C60009923B1F3552391F3951B550BBB27AA2765
:100C700062177307840738F09F5F5F4F220F331F9F
:100C8000441FAA1FA9F335D00E2E3AF0E0E832D067
:100C900091505040E695001CCAF72BD0FE2F29D06A
:100CA000660F771F881FBB1F261737074807AB073C
:100CB000B0E809F0BB0B802DBF01FF2793585F4FB1
:100CC0003AF09E3F510578F00C94F7060C944207D9
:100CD0005F3FE4F3983ED4F3869577956795B79593
:100CE000F7959F5FC9F7880F911D9695879597F99E
:100CF0000895E1E0660F771F881FBB1F6217730717
:100D00008407BA0720F0621B730B840BBA0BEE1F2B
:100D100088F7E09508950E94270788F09F5798F07C
:100D2000B92F9927B751B0F0E1F0660F771F881FF0
:100D3000991F1AF0BA95C9F714C0B13091F00E940A
:100D40004107B1E008950C944107672F782F882759
:100D5000B85F39F0B93FCCF3869577956795B39531
:100D6000D9F73EF490958095709561957F4F8F4FA0
:100D70009F4F0895E89409C097FB3EF490958095A5
:100D8000709561957F4F8F4F9F4F9923A9F0F92F51
:100D900096E9BB279395F695879577956795B795CF
:100DA000F111F8CFFAF4BB0F11F460FF1BC06F5FB5
:100DB0007F4F8F4F9F4F16C0882311F096E911C0C7
:100DC000772321F09EE8872F762F05C0662371F0E8
:100DD00096E8862F70E060E02AF09A95660F771FFC
:100DE000881FDAF7880F9695879597F9089597F9F0
:100DF0009F6780E870E060E008959FEF80EC0895C1
:100E000000240A94161617061806090608950024E9
:100E10000A9412161306140605060895092E039463
:100E2000000C11F4882352F0BB0F40F4BF2B11F4D7
:100E300060FF04C06F5F7F4F8F4F9F4F089557FD36
:100E40009058440F551F59F05F3F71F04795880F38
:100E500097FB991F61F09F3F79F0879508951216CF
:100E600013061406551FF2CF4695F1DF08C016167B
:100E700017061806991FF1CF86957105610508942C
:100E80000895E894BB2766277727CB0197F9089543
:100E900097FB072E16F4009407D077FD09D00E9427
:100EA0005C0707FC05D03EF4909581959F4F08950F
:100EB000709561957F4F0895AA1BBB1B51E107C038
:100EC000AA1FBB1FA617B70710F0A61BB70B881FDA
:100ED000991F5A95A9F780959095BC01CD01089569
:100EE000EE0FFF1F0590F491E02D099481E090E052
:0A0EF000F8940C947B07F894FFCFF0
:100EFA0000004843000000006502CE01FC01B20276
:060F0A002D020B021F0284
:107E0000112484B714BE81FFF0D085E080938100F7
:107E100082E08093C00088E18093C10086E0809377
:107E2000C20080E18093C4008EE0C9D0259A86E02C
:107E300020E33CEF91E0309385002093840096BBD3
:107E4000B09BFECF1D9AA8958150A9F7CC24DD24C4
:107E500088248394B5E0AB2EA1E19A2EF3E0BF2EE7
:107E6000A2D0813461F49FD0082FAFD0023811F036
:107E7000013811F484E001C083E08DD089C08234E0
:107E800011F484E103C0853419F485E0A6D080C0E4
:107E9000853579F488D0E82EFF2485D0082F10E0AE
:107EA000102F00270E291F29000F111F8ED06801E7
:107EB0006FC0863521F484E090D080E0DECF843638
:107EC00009F040C070D06FD0082F6DD080E0C81688
:107ED00080E7D80618F4F601B7BEE895C0E0D1E017
:107EE00062D089930C17E1F7F0E0CF16F0E7DF06D8
:107EF00018F0F601B7BEE89568D007B600FCFDCFD4
:107F0000A601A0E0B1E02C9130E011968C91119780
:107F100090E0982F8827822B932B1296FA010C0160
:107F200087BEE89511244E5F5F4FF1E0A038BF0790
:107F300051F7F601A7BEE89507B600FCFDCF97BE46
:107F4000E89526C08437B1F42ED02DD0F82E2BD052
:107F50003CD0F601EF2C8F010F5F1F4F84911BD097
:107F6000EA94F801C1F70894C11CD11CFA94CF0C13
:107F7000D11C0EC0853739F428D08EE10CD085E9AC
:107F80000AD08FE07ACF813511F488E018D01DD067
:107F900080E101D065CF982F8091C00085FFFCCF94
:107FA0009093C60008958091C00087FFFCCF809118
:107FB000C00084FD01C0A8958091C6000895E0E648
:107FC000F0E098E1908380830895EDDF803219F02E
:107FD00088E0F5DFFFCF84E1DECF1F93182FE3DFCA
:107FE0001150E9F7F2DF1F91089580E0E8DFEE27F6
:047FF000FF270994CA
:027FFE00040479
:0400000300007E007B
:00000001FF
